{
  "contractName": "ISA",
  "abi": [
    {
      "inputs": [],
      "stateMutability": "nonpayable",
      "type": "constructor"
    },
    {
      "anonymous": false,
      "inputs": [
        {
          "indexed": true,
          "internalType": "address",
          "name": "stampper",
          "type": "address"
        },
        {
          "indexed": false,
          "internalType": "uint256",
          "name": "blockNumber",
          "type": "uint256"
        },
        {
          "indexed": false,
          "internalType": "string",
          "name": "hash",
          "type": "string"
        }
      ],
      "name": "LogAdditionEvent",
      "type": "event"
    },
    {
      "anonymous": false,
      "inputs": [
        {
          "indexed": true,
          "internalType": "address",
          "name": "StudentAddr",
          "type": "address"
        },
        {
          "indexed": true,
          "internalType": "uint256",
          "name": "Amount",
          "type": "uint256"
        },
        {
          "indexed": true,
          "internalType": "uint256",
          "name": "block",
          "type": "uint256"
        }
      ],
      "name": "LogPaymentEvent",
      "type": "event"
    },
    {
      "inputs": [],
      "name": "StudentIdCounter",
      "outputs": [
        {
          "internalType": "uint16",
          "name": "",
          "type": "uint16"
        }
      ],
      "stateMutability": "view",
      "type": "function",
      "constant": true
    },
    {
      "inputs": [],
      "name": "contractStatus",
      "outputs": [
        {
          "internalType": "bool",
          "name": "",
          "type": "bool"
        }
      ],
      "stateMutability": "view",
      "type": "function",
      "constant": true
    },
    {
      "inputs": [
        {
          "internalType": "address",
          "name": "_Address",
          "type": "address"
        },
        {
          "internalType": "string",
          "name": "_fileHash",
          "type": "string"
        }
      ],
      "name": "storeStudentInfo",
      "outputs": [],
      "stateMutability": "nonpayable",
      "type": "function"
    },
    {
      "inputs": [
        {
          "internalType": "address",
          "name": "_Address",
          "type": "address"
        }
      ],
      "name": "getStudentInfo",
      "outputs": [
        {
          "internalType": "uint16",
          "name": "",
          "type": "uint16"
        },
        {
          "internalType": "address",
          "name": "",
          "type": "address"
        },
        {
          "internalType": "string",
          "name": "",
          "type": "string"
        }
      ],
      "stateMutability": "view",
      "type": "function",
      "constant": true
    },
    {
      "inputs": [
        {
          "internalType": "address",
          "name": "_Address",
          "type": "address"
        },
        {
          "internalType": "uint256",
          "name": "_Amount",
          "type": "uint256"
        },
        {
          "internalType": "uint256",
          "name": "_Mths",
          "type": "uint256"
        }
      ],
      "name": "StorePaymentDetails",
      "outputs": [
        {
          "internalType": "bytes32",
          "name": "",
          "type": "bytes32"
        }
      ],
      "stateMutability": "nonpayable",
      "type": "function"
    },
    {
      "inputs": [
        {
          "internalType": "uint256",
          "name": "_amount",
          "type": "uint256"
        }
      ],
      "name": "makePayment",
      "outputs": [],
      "stateMutability": "payable",
      "type": "function",
      "payable": true
    },
    {
      "inputs": [
        {
          "internalType": "address",
          "name": "_Addr",
          "type": "address"
        }
      ],
      "name": "getPaymentDetails",
      "outputs": [
        {
          "internalType": "uint256",
          "name": "",
          "type": "uint256"
        },
        {
          "internalType": "uint256",
          "name": "",
          "type": "uint256"
        }
      ],
      "stateMutability": "view",
      "type": "function",
      "constant": true
    },
    {
      "inputs": [
        {
          "internalType": "string",
          "name": "fileHash",
          "type": "string"
        }
      ],
      "name": "storeFileHash",
      "outputs": [],
      "stateMutability": "nonpayable",
      "type": "function"
    },
    {
      "inputs": [
        {
          "internalType": "address",
          "name": "StudentAddr",
          "type": "address"
        },
        {
          "internalType": "string",
          "name": "fHash",
          "type": "string"
        }
      ],
      "name": "verifyFileHash",
      "outputs": [
        {
          "internalType": "uint256",
          "name": "",
          "type": "uint256"
        }
      ],
      "stateMutability": "view",
      "type": "function",
      "constant": true
    }
  ],
  "bytecode": "0x60806040523480156200001157600080fd5b50336000806101000a81548173ffffffffffffffffffffffffffffffffffffffff021916908373ffffffffffffffffffffffffffffffffffffffff1602179055506000600360006064811062000090577f4e487b7100000000000000000000000000000000000000000000000000000000600052603260045260246000fd5b6003020160000160006101000a81548161ffff021916908361ffff16021790555060008054906101000a900473ffffffffffffffffffffffffffffffffffffffff1660036000606481106200010e577f4e487b7100000000000000000000000000000000000000000000000000000000600052603260045260246000fd5b6003020160000160026101000a81548173ffffffffffffffffffffffffffffffffffffffff021916908373ffffffffffffffffffffffffffffffffffffffff1602179055506040518060200160405280600081525060036000606481106200019f577f4e487b7100000000000000000000000000000000000000000000000000000000600052603260045260246000fd5b600302016001019080519060200190620001bb92919062000257565b5060006003600060648110620001fa577f4e487b7100000000000000000000000000000000000000000000000000000000600052603260045260246000fd5b6003020160020160006101000a81548160ff0219169083151502179055506001600260006101000a81548161ffff021916908361ffff1602179055506001600060146101000a81548160ff0219169083151502179055506200036c565b828054620002659062000307565b90600052602060002090601f016020900481019282620002895760008555620002d5565b82601f10620002a457805160ff1916838001178555620002d5565b82800160010185558215620002d5579182015b82811115620002d4578251825591602001919060010190620002b7565b5b509050620002e49190620002e8565b5090565b5b8082111562000303576000816000905550600101620002e9565b5090565b600060028204905060018216806200032057607f821691505b602082108114156200033757620003366200033d565b5b50919050565b7f4e487b7100000000000000000000000000000000000000000000000000000000600052602260045260246000fd5b6116e7806200037c6000396000f3fe6080604052600436106100865760003560e01c806358765ece1161005957806358765ece1461014c578063884118711461018a578063c6ee20d2146101b5578063ce32636c146101e0578063fb6cbd061461021d57610086565b80631f88cea31461008b5780632916ceca146100b45780634b82caec146100f15780635114cb5214610130575b600080fd5b34801561009757600080fd5b506100b260048036038101906100ad9190610f0c565b610246565b005b3480156100c057600080fd5b506100db60048036038101906100d69190610f0c565b6105f0565b6040516100e89190611260565b60405180910390f35b3480156100fd57600080fd5b5061011860048036038101906101139190610ee3565b610656565b60405161012793929190611222565b60405180910390f35b61014a60048036038101906101459190610ff0565b61091d565b005b34801561015857600080fd5b50610173600480360381019061016e9190610ee3565b610a73565b6040516101819291906112d9565b60405180910390f35b34801561019657600080fd5b5061019f610b07565b6040516101ac9190611207565b60405180910390f35b3480156101c157600080fd5b506101ca610b1b565b6040516101d79190611171565b60405180910390f35b3480156101ec57600080fd5b5061020760048036038101906102029190610f60565b610b2e565b604051610214919061118c565b60405180910390f35b34801561022957600080fd5b50610244600480360381019061023f9190610faf565b610c5d565b005b8181600080600190505b6001600260009054906101000a900461ffff1661026d919061137f565b61ffff168161ffff16101561032d578373ffffffffffffffffffffffffffffffffffffffff1660038261ffff16606481106102d1577f4e487b7100000000000000000000000000000000000000000000000000000000600052603260045260246000fd5b6003020160000160029054906101000a900473ffffffffffffffffffffffffffffffffffffffff1673ffffffffffffffffffffffffffffffffffffffff16141561031a57600191505b8080610325906114f0565b915050610250565b506000151581151514610375576040517f08c379a000000000000000000000000000000000000000000000000000000000815260040161036c906111a7565b60405180910390fd5b600260009054906101000a900461ffff166003600260009054906101000a900461ffff1661ffff16606481106103d4577f4e487b7100000000000000000000000000000000000000000000000000000000600052603260045260246000fd5b6003020160000160006101000a81548161ffff021916908361ffff160217905550846003600260009054906101000a900461ffff1661ffff1660648110610444577f4e487b7100000000000000000000000000000000000000000000000000000000600052603260045260246000fd5b6003020160000160026101000a81548173ffffffffffffffffffffffffffffffffffffffff021916908373ffffffffffffffffffffffffffffffffffffffff160217905550836003600260009054906101000a900461ffff1661ffff16606481106104d8577f4e487b7100000000000000000000000000000000000000000000000000000000600052603260045260246000fd5b6003020160010190805190602001906104f2929190610dae565b5060006003600260009054906101000a900461ffff1661ffff1660648110610543577f4e487b7100000000000000000000000000000000000000000000000000000000600052603260045260246000fd5b6003020160020160006101000a81548160ff0219169083151502179055506001600260008282829054906101000a900461ffff16610581919061137f565b92506101000a81548161ffff021916908361ffff1602179055503373ffffffffffffffffffffffffffffffffffffffff167f9bec25e13211d0698a12c807bc1160b0d141cb675a7fce829003fc6e28b832ad436040516105e191906112ab565b60405180910390a25050505050565b6000600160008473ffffffffffffffffffffffffffffffffffffffff1673ffffffffffffffffffffffffffffffffffffffff1681526020019081526020016000208260405161063f919061115a565b908152602001604051809103902054905092915050565b60008060606000600190505b6001600260009054906101000a900461ffff1661067f919061137f565b61ffff168161ffff1610156108d1578473ffffffffffffffffffffffffffffffffffffffff1660038261ffff16606481106106e3577f4e487b7100000000000000000000000000000000000000000000000000000000600052603260045260246000fd5b6003020160000160029054906101000a900473ffffffffffffffffffffffffffffffffffffffff1673ffffffffffffffffffffffffffffffffffffffff1614156108be5760038161ffff1660648110610765577f4e487b7100000000000000000000000000000000000000000000000000000000600052603260045260246000fd5b6003020160000160009054906101000a900461ffff1660038261ffff16606481106107b9577f4e487b7100000000000000000000000000000000000000000000000000000000600052603260045260246000fd5b6003020160000160029054906101000a900473ffffffffffffffffffffffffffffffffffffffff1660038361ffff166064811061081f577f4e487b7100000000000000000000000000000000000000000000000000000000600052603260045260246000fd5b600302016001018080546108329061148d565b80601f016020809104026020016040519081016040528092919081815260200182805461085e9061148d565b80156108ab5780601f10610880576101008083540402835291602001916108ab565b820191906000526020600020905b81548152906001019060200180831161088e57829003601f168201915b5050505050905093509350935050610916565b80806108c9906114f0565b915050610662565b50600061fde8816040518060400160405280600981526020017f4e6f207265636f72640000000000000000000000000000000000000000000000815250935093509350505b9193909250565b803373ffffffffffffffffffffffffffffffffffffffff163111610976576040517f08c379a000000000000000000000000000000000000000000000000000000000815260040161096d906111c7565b60405180910390fd5b8061012f60003373ffffffffffffffffffffffffffffffffffffffff1673ffffffffffffffffffffffffffffffffffffffff16815260200190815260200160002060000160008282546109c991906113b7565b92505081905550600161012f60003373ffffffffffffffffffffffffffffffffffffffff1673ffffffffffffffffffffffffffffffffffffffff1681526020019081526020016000206001016000828254610a2491906113b7565b9250508190555043813373ffffffffffffffffffffffffffffffffffffffff167f57dac48b308317053f08bb677e9a240af2e566d6729afad276dd53b7079a9aab60405160405180910390a450565b60008061012f60008473ffffffffffffffffffffffffffffffffffffffff1673ffffffffffffffffffffffffffffffffffffffff1681526020019081526020016000206000015461012f60008573ffffffffffffffffffffffffffffffffffffffff1673ffffffffffffffffffffffffffffffffffffffff1681526020019081526020016000206001015491509150915091565b600260009054906101000a900461ffff1681565b600060149054906101000a900460ff1681565b60008061012f60008673ffffffffffffffffffffffffffffffffffffffff1673ffffffffffffffffffffffffffffffffffffffff1681526020019081526020016000206000015414610ba2577f5265636f726420616c72656164792065786973747300000000000000000000009050610c56565b8261012f60008673ffffffffffffffffffffffffffffffffffffffff1673ffffffffffffffffffffffffffffffffffffffff168152602001908152602001600020600001819055508161012f60008673ffffffffffffffffffffffffffffffffffffffff1673ffffffffffffffffffffffffffffffffffffffff168152602001908152602001600020600101819055507f5061796d656e74207465726d732075706c6f616465640000000000000000000090505b9392505050565b6000600160003373ffffffffffffffffffffffffffffffffffffffff1673ffffffffffffffffffffffffffffffffffffffff16815260200190815260200160002082604051610cac919061115a565b90815260200160405180910390205414610cfb576040517f08c379a0000000000000000000000000000000000000000000000000000000008152600401610cf2906111e7565b60405180910390fd5b43600160003373ffffffffffffffffffffffffffffffffffffffff1673ffffffffffffffffffffffffffffffffffffffff16815260200190815260200160002082604051610d49919061115a565b9081526020016040518091039020819055503373ffffffffffffffffffffffffffffffffffffffff167f9bec25e13211d0698a12c807bc1160b0d141cb675a7fce829003fc6e28b832ad4383604051610da392919061127b565b60405180910390a250565b828054610dba9061148d565b90600052602060002090601f016020900481019282610ddc5760008555610e23565b82601f10610df557805160ff1916838001178555610e23565b82800160010185558215610e23579182015b82811115610e22578251825591602001919060010190610e07565b5b509050610e309190610e34565b5090565b5b80821115610e4d576000816000905550600101610e35565b5090565b6000610e64610e5f84611327565b611302565b905082815260208101848484011115610e7c57600080fd5b610e8784828561144b565b509392505050565b600081359050610e9e81611683565b92915050565b600082601f830112610eb557600080fd5b8135610ec5848260208601610e51565b91505092915050565b600081359050610edd8161169a565b92915050565b600060208284031215610ef557600080fd5b6000610f0384828501610e8f565b91505092915050565b60008060408385031215610f1f57600080fd5b6000610f2d85828601610e8f565b925050602083013567ffffffffffffffff811115610f4a57600080fd5b610f5685828601610ea4565b9150509250929050565b600080600060608486031215610f7557600080fd5b6000610f8386828701610e8f565b9350506020610f9486828701610ece565b9250506040610fa586828701610ece565b9150509250925092565b600060208284031215610fc157600080fd5b600082013567ffffffffffffffff811115610fdb57600080fd5b610fe784828501610ea4565b91505092915050565b60006020828403121561100257600080fd5b600061101084828501610ece565b91505092915050565b611022816113eb565b82525050565b611031816113fd565b82525050565b61104081611409565b82525050565b600061105182611358565b61105b8185611363565b935061106b81856020860161145a565b611074816115a8565b840191505092915050565b600061108a82611358565b6110948185611374565b93506110a481856020860161145a565b80840191505092915050565b60006110bd601383611363565b91506110c8826115b9565b602082019050919050565b60006110e0601683611363565b91506110eb826115e2565b602082019050919050565b6000611103601183611363565b915061110e8261160b565b602082019050919050565b6000611126602583611363565b915061113182611634565b604082019050919050565b61114581611413565b82525050565b61115481611441565b82525050565b6000611166828461107f565b915081905092915050565b60006020820190506111866000830184611028565b92915050565b60006020820190506111a16000830184611037565b92915050565b600060208201905081810360008301526111c0816110d3565b9050919050565b600060208201905081810360008301526111e0816110f6565b9050919050565b6000602082019050818103600083015261120081611119565b9050919050565b600060208201905061121c600083018461113c565b92915050565b6000606082019050611237600083018661113c565b6112446020830185611019565b81810360408301526112568184611046565b9050949350505050565b6000602082019050611275600083018461114b565b92915050565b6000604082019050611290600083018561114b565b81810360208301526112a28184611046565b90509392505050565b60006040820190506112c0600083018461114b565b81810360208301526112d1816110b0565b905092915050565b60006040820190506112ee600083018561114b565b6112fb602083018461114b565b9392505050565b600061130c61131d565b905061131882826114bf565b919050565b6000604051905090565b600067ffffffffffffffff82111561134257611341611579565b5b61134b826115a8565b9050602081019050919050565b600081519050919050565b600082825260208201905092915050565b600081905092915050565b600061138a82611413565b915061139583611413565b92508261ffff038211156113ac576113ab61151b565b5b828201905092915050565b60006113c282611441565b91506113cd83611441565b9250828210156113e0576113df61151b565b5b828203905092915050565b60006113f682611421565b9050919050565b60008115159050919050565b6000819050919050565b600061ffff82169050919050565b600073ffffffffffffffffffffffffffffffffffffffff82169050919050565b6000819050919050565b82818337600083830152505050565b60005b8381101561147857808201518184015260208101905061145d565b83811115611487576000848401525b50505050565b600060028204905060018216806114a557607f821691505b602082108114156114b9576114b861154a565b5b50919050565b6114c8826115a8565b810181811067ffffffffffffffff821117156114e7576114e6611579565b5b80604052505050565b60006114fb82611413565b915061ffff8214156115105761150f61151b565b5b600182019050919050565b7f4e487b7100000000000000000000000000000000000000000000000000000000600052601160045260246000fd5b7f4e487b7100000000000000000000000000000000000000000000000000000000600052602260045260246000fd5b7f4e487b7100000000000000000000000000000000000000000000000000000000600052604160045260246000fd5b6000601f19601f8301169050919050565b7f73746f7265642073747564656e7420696e666f00000000000000000000000000600082015250565b7f53747564656e742773207265636f726420657869737400000000000000000000600082015250565b7f696e73756666696369656e742066756e64000000000000000000000000000000600082015250565b7f54686973206861736820686173206265656e2073746f7265642070726576696f60008201527f75736c7921000000000000000000000000000000000000000000000000000000602082015250565b61168c816113eb565b811461169757600080fd5b50565b6116a381611441565b81146116ae57600080fd5b5056fea2646970667358221220eece0b92bc501b4690ceba8bf680b01c52617a058b7f88ef1ed15802e9b7a8dc64736f6c63430008020033",
  "immutableReferences": {},
  "source": "//SPDX-License-Identifier: MIT\r\npragma solidity >0.7.0;\r\n\r\ncontract ISA {\r\n    // the owner of the contract\r\n    address owner;\r\n\r\n    // a circuit breaker to stop the contract\r\n    bool public contractStatus;\r\n\r\n    // (School will) Map Student's Address to ISA agreement (represented as IPFS Hash)\r\n    // mapping(address => string ) private Agreements;\r\n\r\n    //Map Address to Uint256, whereyby this Uint256 is from Mapping Hash to Uint256\r\n    // School loads ISA into IPFS. Student retrieve ISA from IPFS with the filehash\r\n    // given by the School. Verify/Agrees and 'SIGN' - block.number capture into \r\n    // the below mapping\r\n    mapping(address => mapping(string => uint256)) private hashes;\r\n    // eg 0x1234 => ( QM3f => 32)\r\n    //    WalletAdrr => (FileHash => Block.number)\r\n\r\n    \r\n    // (School will) store Student's Id & Student's address\r\n    struct StudentInfo {\r\n        uint16 studentId;  // use this to link to external SQL database\r\n        address studentAddr;  \r\n        string fileHash; // ISA document\r\n        bool status;    // actively servicing contract: No: not started/ended\r\n    }\r\n    uint16 public StudentIdCounter;\r\n\r\n    StudentInfo[100] Students;  // Interim solution, Dynmanic array of struct doesn't work, need to make\r\n                                // contract upgradeable for future expansion\r\n    \r\n    //Map Student's address to his Payment details\r\n    struct Payment {\r\n        uint256 Bal_Amount; //how much more to paid?\r\n        uint256 Bal_Months;  // how many payments left to go?\r\n    }\r\n    mapping(address => Payment) Payments;\r\n\r\n    // an event to be emitted when a new hash has been added\r\n    event LogAdditionEvent(\r\n        address indexed stampper,\r\n        uint256 blockNumber,\r\n        string hash\r\n    );\r\n\r\n    //event for a new Payment made\r\n    event LogPaymentEvent(\r\n        address indexed StudentAddr,\r\n        uint256 indexed Amount,\r\n        uint256 indexed block\r\n    );\r\n\r\n    // checks if the msg.sender is the owner of the contract\r\n    modifier ownerOnly() {\r\n        require(msg.sender == owner, \"You must be the owner!\");\r\n        _;\r\n    }\r\n\r\n    // checks if Student's record already exists\r\n    modifier StudentExist(address _Address, string memory _fileHash) {\r\n        bool exist= false;\r\n        for (uint16 i=1; i<StudentIdCounter+1; i++) {\r\n                if (Students[i].studentAddr == _Address){\r\n                        exist = true;\r\n                        // break;\r\n            }}        \r\n        require(exist==false, \"Student's record exist\");\r\n        _;\r\n    }\r\n\r\n    // stopInEmergency\r\n    // modifier stopInEmergency {\r\n    //     require(contractStatus, \"The contract is down currently!\");\r\n    //     _;\r\n    // }\r\n\r\n    constructor()  {\r\n        /// set the owner as the contract deployer\r\n        owner = msg.sender;\r\n        // array[0] : dummy\r\n        Students[0].studentId= 0;\r\n        Students[0].studentAddr = owner;\r\n        Students[0].fileHash = '';\r\n        Students[0].status = false;\r\n        StudentIdCounter = 1;   // Start StudentId from 1;  '0' is a dummy record\r\n        contractStatus = true;  \r\n    }\r\n\r\n    // Qualified Student registered  key info (id,addr, ISA status) into smart contract\r\n    function storeStudentInfo(address _Address, string memory _fileHash) public StudentExist(_Address,  _fileHash) { \r\n            Students[StudentIdCounter].studentId = StudentIdCounter;\r\n            Students[StudentIdCounter].studentAddr = _Address;\r\n            Students[StudentIdCounter].fileHash = _fileHash;\r\n            Students[StudentIdCounter].status = false;\r\n            StudentIdCounter += 1;\r\n    \r\n            // emit LogAdditionEvent(msg.sender, block.number, _hash);\r\n            emit LogAdditionEvent(msg.sender, block.number, \"stored student info\");\r\n    }\r\n\r\n    // Display Student's info : Id\r\n    function getStudentInfo(address _Address) public view returns (uint16, address,string memory){\r\n        for (uint16 i=1; i<StudentIdCounter+1; i++) {\r\n            if (Students[i].studentAddr == _Address){\r\n                return (Students[i].studentId, Students[i].studentAddr,Students[i].fileHash);\r\n            }\r\n        }\r\n        address temp= address(0);\r\n        return (65000, temp, \"No record\"); // no record found\r\n    }\r\n\r\n\r\n    // School stores Student's ISA payments terms, and update status to true\r\n    // when student has found a job with salary > 30k\r\n    function StorePaymentDetails(address _Address, uint256 _Amount, uint256 _Mths) public returns (bytes32){\r\n        if(Payments[_Address].Bal_Amount != 0){\r\n            return \"Record already exists\";\r\n        }\r\n        Payments[_Address].Bal_Amount = _Amount;\r\n        Payments[_Address].Bal_Months = _Mths;\r\n        return \"Payment terms uploaded\";\r\n    }\r\n    \r\n    \r\n    // Student makes periodic payments\r\n    // reduce his balance loans and periods of repayment\r\n    function makePayment(uint256 _amount) payable public {\r\n        require(msg.sender.balance> _amount, \"insufficient fund\");\r\n        Payments[msg.sender].Bal_Amount -= _amount;\r\n        Payments[msg.sender].Bal_Months -= 1;\r\n\r\n        emit LogPaymentEvent(msg.sender,_amount, block.number);\r\n    }\r\n    \r\n    \r\n    // Retrieve Payments details - latest balances\r\n    function getPaymentDetails(address _Addr) public view returns(uint256, uint256){\r\n        return (Payments[_Addr].Bal_Amount, Payments[_Addr].Bal_Months);\r\n        // return (Payments[msg.sender].Bal_Amount, Payments[msg.sender].Bal_Months);\r\n        \r\n    }\r\n\r\n    \r\n    // Student Sign by storing IPFS Hash with Block number\r\n     function storeFileHash(string memory fileHash) public  {\r\n        require(\r\n            hashes[msg.sender][fileHash] == 0,\r\n            \"This hash has been stored previously!\"\r\n        );\r\n\r\n        hashes[msg.sender][fileHash] = block.number;\r\n\r\n        emit LogAdditionEvent(msg.sender, block.number, fileHash);\r\n    }\r\n\r\n\r\n    //  @notice Verifies if the hash exists\r\n    // @param stampper The address of the stampper\r\n    // @param hash The hash to be stored\r\n    // @return the block number of a hash if it exists in the contract's state\r\n    // or returns 0\r\n    function verifyFileHash(address StudentAddr, string memory fHash)\r\n        public\r\n        view\r\n        // stopInEmergency\r\n        returns (uint256)\r\n    {\r\n        return hashes[StudentAddr][fHash];\r\n        // return Agreements[stampper];\r\n    }\r\n\r\n\r\n    /// @notice Enable/Disable contract functionality (a circuit breaker)\r\n    /// @param _contractStatus The new circuit breaker state\r\n    // function updateContractStatus(bool _contractStatus) public ownerOnly {\r\n    //     contractStatus = _contractStatus;\r\n\r\n    //     emit LogContractStatusUpdated(_contractStatus);\r\n    // }\r\n\r\n    // }\r\n}\r\n\r\n",
  "sourcePath": "C:/Users/Patrick Su/OneDrive/BCI Project/nxlvl/src/contracts/ISA.sol",
  "compiler": {
    "name": "solc",
    "version": "0.8.2+commit.661d1103.Emscripten.clang"
  },
  "schemaVersion": "3.3.4",
  "updatedAt": "2021-03-22T08:14:53.858Z",
  "networkType": "ethereum",
  "devdoc": {
    "kind": "dev",
    "methods": {},
    "version": 1
  },
  "userdoc": {
    "kind": "user",
    "methods": {},
    "version": 1
  }
}